:020000040800F2
:10000000C00D00203D010008711300084D120008CA
:1000100000000000000000000000000000000000E0
:10002000000000000000000000000000A91C000803
:100030000000000000000000FB0000089D1E0008FA
:100040004F010008000000004F0100084F010008A8
:100050004F0100084F0100084F0100084F01000840
:10006000000000004F0100084F0100084F01000888
:100070004F0100084F0100084F0100080000000078
:10008000CD1F00080000000000000000551F000800
:10009000000000004F0100084F0100084F01000858
:1000A000000000004F010008000000004F010008A0
:1000B0000348854600F0E6FB00480047552C000841
:1000C000C00D0020084B19680868203080F30988AB
:1000D000022080F31488BFF36F8F3FBCAE4608BC8C
:1000E00004BC62B61847000034000020EFF3108013
:1000F00072B6704780F310887047EFF309800E4B9B
:100100001A6820381060F0C044464D4656465F4697
:10011000F0C008B572B603F033FA62B60CBC1168D1
:1001200008681030F0C8A046A946B246BB4680F326
:1001300009882038F0C81847340000200448804758
:1001400004480047FEE7FEE7FEE7FEE7FEE7FEE7BE
:10015000A51E0008B100000830B50B46014600207E
:100160002022012409E00D46D5409D4205D31D46BD
:100170009540491B2546954040191546521E002DB5
:10018000F1DC30BDF8B502464A40D40F42004B00C6
:1001900052085B089A4202D20246084611464A00BB
:1001A00023D0C30D4A00DDB2120EAD1A202D35DA70
:1001B00049020126490AF6058A19002C00D052424C
:1001C00020214F1B1146B9402A411018C20D9A42F6
:1001D00021D0002C17D0012D08DCDA05801AD20FAF
:1001E0008019D207DBB200F04DF9F8BDDA05801AAC
:1001F000012340001B06C01880185A428018CA0FFD
:100200001043490007E04908C2071143DA05801A84
:1002100080194008801800F02DF9F8BD6100012216
:10022000511A001BF7E70122D2075140AAE7012229
:10023000D2075040A6E7024670B54A40D30FDB070D
:1002400040002DD04A002AD0010E140E00021202E6
:100250000919400A520A8418E50104465443000A69
:10026000120A2E045043A4194219200CC543AA189F
:10027000120C0125AD03521C521912047F392404BB
:1002800000D0521C104301D44000491EC2B20C06DB
:10029000C0092018401C4008802A02D003E000203A
:1002A00070BD40084000002900DA0020184370BDEE
:1002B00070B502464A40D50F40004A00ED0740089D
:1002C0005208002814D0002A12D0C40DD30D4102C8
:1002D0000120C0055202490A520AE41A09181218EC
:1002E0007D34914201D3641C00E04900002C01DA06
:1002F000002070BD0023914201D3891A03434008B6
:1003000049000028F7D100290AD0914202D10121E9
:10031000C90705E0914201D2012101E00121C94351
:10032000E005C018401900F0A5F870BD420005D0E6
:100330004200120E52428A4201DB00207047C9057A
:1003400008187047C217C10F504010B54018CA07AF
:100350009623002100F096F810BD10B500229623D8
:10036000114600F08FF810BDC20F4100400201237A
:10037000400ADB05D207090EC0187F2901DA0020E8
:100380007047962903DC9623591AC84001E0963934
:100390008840002AF4D040427047410040020122C8
:1003A000400AD205090E80187F2901DA0020704723
:1003B000962903DC9622511AC84070479639884026
:1003C0007047C20FD207400040080BD0C10D072371
:1003D000DB01C91840020905400A1143C208400761
:1003E0001143704700200146704700000122D207E8
:1003F000002800DB101A002900DB511A81427047E7
:100400000122D207002800DB101A002900DB511A54
:1004100088427047F0B51FB40646002082B00546FA
:100420004024019100901BE0019922460F4630467E
:1004300000F04AFA049A059B801A994110D310469D
:100440001946224600F030FA361A8F4101972246AB
:1004500001200021009F00F027FA38184D4100903C
:100460002046641E0028DFDC019B009829463246A6
:1004700007B0F0BD002904DA401C490001D1400852
:100480004000704770B40024050C05D1102400040E
:1004900002D1002921D01124050E01D10002083417
:1004A000050F01D10001241D850F01D18000A41C7E
:1004B000002801DB4000641C002908D020252E1BE9
:1004C0000D46F540A14000D0012129430843010613
:1004D0001B1B000ADB1D02D5002070BC7047DB052A
:1004E000181880180029F8DA401C4900F5D170BCB2
:1004F0004008400070470000F0B5074608465840E5
:1005000087B0C00F049048000E46590040084908C3
:10051000BC1A884105D2384631461E4617460B465E
:1005200002465800400810434CD0300D039040055F
:100530005900400D490D0590401A0290402872DA8A
:1005400018030121000B090508430190049800924B
:10055000002805D001995242002088410092019064
:10056000029840210A1A0199009800F09DF9054669
:100570000C466B4607CB00F0B8F9C0197141039ADD
:100580000E0D0023D71756401A467A40164344D022
:10059000049A002A2DD0029A012A039A15DC12052A
:1005A000C01A914101263605001C7141D20F059EEB
:1005B000D2070093019202962A46234600F0B5F92D
:1005C00007B0F0BD38463146FAE71605224A0F4615
:1005D000B218C01AB74101210905001C4F4100188B
:1005E0007F41114618187941E20F10436D1964419B
:1005F00013E0E2076D0815436408C2071443039A29
:1006000001261205C01A91413605001C7141CE0722
:10061000400830434908C01851412A46234600F09B
:1006200077F9CDE7FFE7049801224000C117121ABD
:1006300000238B4104983146C417381AA141EEE7D4
:1006400030B40124E407634030BC55E730B40124E2
:10065000E407614030BC4FE70000E0FFF0B51FB495
:1006600088B00B990998002448400999C00F4900A7
:1006700049080991C0070B990090490049080B915E
:1006800009990898A64608431CD00B990A98084374
:1006900018D0099801244000420D4800410D0998E6
:1006A00024050003000B204309900B980003000B66
:1006B00020430B9050181C4940180022019014460A
:1006C000104605E0002001460DB0F0BD032801DA18
:1006D000034600E003239C46C11A0AAE0AE05F000D
:1006E00008ADED5B4F00F75B7D430027AA187C4106
:1006F000491C5B1E6145F2DD410004AB5A522104E6
:10070000120C0A43240C401C0828DFDB01980290DD
:100710000099704601910090059B049A07990698EC
:1007200000F003F9D0E700000DFCFFFFF0B50C4628
:100730005C4085B0E40FE40703944C000026640895
:1007400059009446490802460296224321D0624647
:100750000A431ED06200570D4A000E032303550DB5
:10076000012402462C492405781B1B0B360B40182C
:1007700023432643614600901C46501AB44103D3DC
:100780000098401C009002E0921800985B410028FD
:1007900003DA0020014605B0F0BD00200121090563
:1007A0000746864611E064461D46141BB54106D334
:1007B0006546521BB341744607430C43A646CD071A
:1007C00040084908284392185B4105460D43EAD189
:1007D0001046184313D060461946504071400843F4
:1007E00006D06046101AB34106D20122002306E06B
:1007F00000220123DB0702E00122D24353100098BC
:1008000074460105381C6141029C039D0019694131
:1008100000F07EF8BFE70000FD0300004A00090376
:100820000123090B1B0519430A4B10B5520D9A42BF
:1008300002DA0020014610BD064B34339A4203DC35
:100840009A1A00F041F810BD034BD21800F02CF8B2
:1008500010BD0000FF030000CDFBFFFF10B5002915
:1008600004DB0124E40740428C412146002B04DBD9
:100870001C460123DB075242A341994200D190421A
:1008800010BD0000064C0125064E05E0E36807CCCC
:100890002B430C3C98471034B442F7D3FFF70CFCC1
:1008A000F43E0008143F000810B5202A04DB01467E
:1008B000203A9140002010BD914020239C1A03460D
:1008C000E3401943904010BD10B5202A04DB0846D0
:1008D000203AD040002110BD0B46D340D040202408
:1008E000A21A91400843194610BD10B5202A06DB14
:1008F000CB170846203A1041C1170B4306E00B46C0
:100900001341D0402024A21A91400843194610BD3B
:1009100010B5002B08DA0024401C614192185B419D
:100920001A4301D14008400010BDF0B51FB482B099
:1009300005460C0003D0084601F068FC02E001F017
:1009400065FC20300246009021462846FFF7ACFFA8
:10095000049B059A04460F4618431143084314D0DC
:10096000184610431BD0009840210A1A18460599D2
:10097000FFF7AAFF05460E46009A05990498FFF76F
:1009800093FF084305D0012004E02046394607B014
:10099000F0BD0020C11705430E432C433743009997
:1009A0000E986305401A7905E40A00220C43FD0AFB
:1009B0000A3002D500200146E9E701051019694116
:1009C0000C9C0D9D00196941FFF7A2FFDFE7836AC8
:1009D0000B4383624261704701617047002981685F
:1009E00001D0012200E00222114381607047000023
:1009F000F0B53F4D93B0284600F092F8012148042D
:100A000001F03CF80121480201F050F86905284640
:100A1000FFF7E2FF0121084601F030F80121022032
:100A200001F038F80E200690032669460E7706A9D5
:100A3000680400F0BFFB2F4F384600F017FA2C482F
:100A40000024403008902C4809A951C180200D9005
:100A500040000E9080000F90202010900C94000217
:100A6000119008A91294384600F060FA0121384626
:100A700000F0F0F9684600F024F90120694600947E
:100A80000871C00202904020039004940594284607
:100A900000F0F2F80121284600F004F90222114684
:100AA0002846FFF794FF022204212846FFF78FFF14
:100AB000022208212846FFF78AFF284600F040F866
:100AC0000221284600F024F80121284600F016F8FB
:100AD00001212846FFF782FF0121284600F047F850
:100AE0000028F9D0284600F0E7F813B0F0BD000068
:100AF0000024014008000240840000200029C16851
:100B000002D00122114301E049084900C160704749
:100B1000C26802239A43C260C2680A43C260704737
:100B2000064910B5884208D144150121204600F03D
:100B3000C9FF0021204600F0C5FF10BD0024014080
:100B4000826800210123DB071A4382600F231B0305
:100B50008268491CD20FD207994201D0002AF7D1EE
:100B60008168002901DB006C704700207047024655
:100B70000020CB0104D5926801231B069A4300E0B4
:100B800012680A4200D0012070470000FEB5002420
:100B900025462E460F2736487900081882880146D8
:100BA000C28040318B880193CB80818C0091C184BD
:100BB0001046FFF7D2FB2146FFF7E4FA04460198FE
:100BC000FFF7CBFB2946FFF7DDFA05460098FFF754
:100BD000C4FB3146FFF7D6FA7F1E3F0406463F0CA2
:100BE000D9D1234F3888F88079883A46403201912C
:100BF000D180B9880091F984FFF7AFFB2146FFF758
:100C0000C1FA04460198FFF7A8FB2946FFF7BAFA94
:100C100005460098FFF7A1FB3146FFF7B3FA0646F9
:100C200003212046C943FFF781FB124C2168FFF7DF
:100C300002FBB86603212846C943FFF777FBA1688A
:100C4000FFF7F1FAE168FFF7F6FA05463867032186
:100C50003046C943FFF76AFB6168FFF7ECFAF866B4
:100C6000FF20C005C54201D300203867FEBD00004B
:100C7000840000209001002030B5C268084B8C68C9
:100C80001A400B680D792343CC686D032C43234332
:100C90000C69496923430B431343C36030BD000013
:100CA00003D2FFFF012212030029C16801D01143C2
:100CB00000E09143C1607047816804221143816064
:100CC00070470021016001718160C1600161416173
:100CD000704700001CB500242546019400F094FBE9
:100CE00010260A2340A200211820009600F061FD82
:100CF0000D2340A203210020009600F05AFD00F0D1
:100D00006BFE40484088FFF728FBFD218905FFF76F
:100D100092FAFFF742FB81B23B4841633B4F788830
:100D2000FFF71BFB3A49FFF786FA06463949284682
:100D3000FFF781FA3146FFF725FA0546B888FFF735
:100D40000CFB3349FFF777FA064632490198FFF763
:100D500072FA3146FFF716FA019000F0C7FA01283F
:100D600022D110260920C0068661002C04D0012C57
:100D70000DD0022C1DD014E0012427480199FFF763
:100D800097FA26490D23486025A2009605E02348DE
:100D9000022485600D2326A200960321002000F086
:100DA00008FD274801F0B4FEFF20F53001F0B0FE49
:100DB000B5E71A4C2846A168FFF735FA01462148E5
:100DC000FFF776FAE0601048002141631E4801F009
:100DD0009FFE00F06BFFBFF34F8F1D491B48C8609B
:100DE000BFF34F8F00BFFDE743616C6962204D6F19
:100DF000646500004275636B20566F757420313551
:100E000056000000F8000020002C01408400002063
:100E10009A99993E3333333F0A0070419001002084
:100E20004275636B20496F757420304120000000CB
:100E30004275636B20496F757420324120000000B9
:100E4000C0D401002A00004020A107000400FA05D8
:100E500000ED00E00029016802D00122114301E009
:100E6000014A114001607047FEFF0000F0B50168C3
:100E70002B4A114001600021016041608160C16026
:100E80002849284A08390F2390422DD0254AF024BA
:100E9000143290422FD0234A1D022832904231D082
:100EA000204E1A033C36B04203D1486815E0486032
:100EB000F0BD1C4F0F2650373604B8422DD0194FC5
:100EC0006437B84202D14868320106E0154F7837DE
:100ED000B84204D148680F2212061043E7E71249CE
:100EE000114F0839B84202D148681843DFE70E4B6A
:100EF0001433984202D148682043D8E70A4B28337C
:100F0000984202D148682843D1E7074B3C339842C6
:100F1000CBD0054A50329042CAD148683043C6E728
:100F2000FEFF0000080002400804024030B50368DC
:100F30000C4A0C6A13408A684D6922430C692C43A1
:100F400022438C692243CC6922434C6A22438C6A37
:100F500022431A430260CA6842600A688260496894
:100F6000C16030BD0F80FFFFF8B50927FF06388A42
:100F70002F4E800604D4388A400601D4012053E065
:100F8000388A2C4D8106AC786868009024D5388A60
:100F9000400621D5707800281ED01020B8610120AD
:100FA0006870002C0CD0A8680099FFF7EBF8224974
:100FB000A860884200DD084620490860A8600BE070
:100FC000E8680099FFF7DEF81D49E860884200DD17
:100FD00008461C490860E860388A800623D5388AAC
:100FE000400620D4707800281DD01020B861012060
:100FF000154F6870002C0BD0A8680099FFF713F903
:10100000A860B84200D300200C490860A8600AE03C
:10101000E8680099FFF707F9E860B84200D30020BC
:1010200008490860E860002070700020F8BD0000EA
:10103000150000207400002000004A420401002036
:101040000000084140010020000080800149C86084
:101050007047000000200240F0B50B2706463F0411
:10106000384600F067F804280FD1084C20690225A3
:101070002843206166612069402108432061384689
:1010800000F058F82169A9432161F0BD0020024019
:1010900008490420CA68D20701D001207047CA68F5
:1010A000D20601D502207047C9684907FBD5032045
:1010B000704700000020024002480169802211436D
:1010C0000161704700200240F8B5064600200B275A
:1010D0003F0400900D46384600F02CF8042815D146
:1010E0000B4C20690121084320613580384600F00F
:1010F00021F8042806D1B61C290C00963180384608
:1011000000F018F82169490849002161F8BD000084
:101110000020024004480169090603D503494160E3
:1011200003494160704700000020024023016745E9
:10113000AB89EFCD00B50346FFF7AAFF02E0FFF74A
:10114000A7FF5B1E012803D0002B00D1052000BDA6
:10115000002BF4D1FAE700001CB502F077F9002467
:10116000012000902346802209A101940C4802F03E
:101170005DFA02200090002380220AA101940C480D
:1011800002F054FA02F06EF902F0CCF91CBD000036
:101190004D59444953504C41595441534B00000060
:1011A000292E00084D59494E50555441534B0000CB
:1011B000FD2E0008F0B50022032501230C689340A2
:1011C0001C409C422AD10C79012C01D0022C12D156
:1011D000876854002E46A640B74387604E79A640E4
:1011E00084682643866084889C43848084888B79C5
:1011F00093401C438480066853002C469C40A643C1
:1012000006600E7907689E403E430660C668A643A6
:10121000C660CC799C40C3681C43C460521C102A31
:10122000CBD3F0BD4B07DB0E9A40C90810B589003F
:101230000818016A0F249C40A1430162016A11430E
:10124000016210BD0185704781617047FEE70000B3
:10125000FEB50121480400F011FC0121880400F0D2
:101260000DFCC32040010090002468460471032651
:10127000467101250927C571FF0669463846FFF703
:1012800099FF6846009504714671C5716946114819
:10129000FFF790FF10213846FFF7D4FF1020009091
:1012A0006846057184714671C47169463846FFF716
:1012B00081FF0948094944708570416008490470FC
:1012C0000968C160074909688160074801F020FC8E
:1012D000FEBD00000004004874000020CDCCCC3DD1
:1012E000400100200401002050C30000002009211B
:1012F000C9060A8A120501D4012009E0098AC90435
:1013000001D4022004E00A49098AC90700D1032058
:1013100008490A78002A04D0002804D000220A7064
:101320007047002801D1FF2008700020704700009E
:1013300000040048150000201CB50121880400F0BD
:101340009DFB0A4C32212046FFF77EFF32200090A1
:1013500001206B4618710021997103225A71D971CD
:1013600069462046FFF726FF1CBD00000004004828
:101370007047000030B5827801240178002A15D02A
:101380008B080E4A9B009A1813688907C90EFF251F
:101390008D40AB434578AD072D0E8D401D43156044
:1013A0000078C006C00E8440054804E0C806C00EA0
:1013B000844003488030046030BD000000E400E059
:1013C00000E100E08307FF22DB0E9A408907090E47
:1013D000994000280BDA0007000F083883080848F6
:1013E0009B001818C36993430B43C361704783087C
:1013F00004489B001818036893430B43036070472D
:1014000000ED00E000E400E070B500252846B030B3
:10141000C0B2002100F010FA0021084600F00CFADA
:101420000021102000F008FA00244021002000F0E4
:1014300003FA641CE4B2802CF7D36D1CEDB2082DC6
:10144000E4D370BD10B501F039FD374C204601F0F2
:101450005FFB0021AE2000F0EFF90021084600F00C
:10146000EBF90021102000F0E7F90021402000F006
:10147000E3F90021B02000F0DFF90021812000F025
:10148000DBF90021FF2000F0D7F90021A12000F0B6
:10149000D3F90021A62000F0CFF90021A82000F008
:1014A000CBF900213F2000F0C7F90021C82000F04F
:1014B000C3F90021D32000F0BFF90021084600F055
:1014C000BBF90021D52000F0B7F90021802000F001
:1014D000B3F90021D82000F0AFF90021052000F079
:1014E000ABF90021D92000F0A7F90021F12000F08C
:1014F000A3F90021DA2000F09FF90021122000F06A
:101500009BF90021DB2000F097F90021202000F05A
:1015100093F9204601F0FCFAFFF776FF00F056F849
:1015200000F004F810BD0000A086010008B51020EE
:101530000C23009021A20021184600F03AF9012264
:101540000321002000F096F802220321102000F071
:1015500091F810233A220321202000F063F80123A0
:10156000002203212C2000F0ABF810235622032187
:10157000642000F057F810233E2203216C2000F075
:1015800051F801220621002000F074F80322062100
:10159000102000F06FF810233A220621202000F0DE
:1015A00041F80123002206212C2000F089F81023A5
:1015B00041220621642000F035F808BD4275636BB6
:1015C00020436F6E766572740000000010B5002134
:1015D0008D2000F031F90021142000F02DF90021B8
:1015E000AF2000F029F910BD0346012000E0584368
:1015F0000A46491EC9B2002AF9D1704770B5B03108
:10160000CAB2040905072D0F00211046103400F05E
:1016100013F90021204600F00FF90021284600F0C0
:101620000BF970BDFFB581B0203A0F460024D5B24A
:101630000198FFF7E3FF0E4E2D012819305C402181
:1016400000F0FAF8641CE4B2082CF6D37F1CF9B25F
:101650000198FFF7D3FF002428198019007A402150
:1016600000F0EAF8641CE4B2082CF5D305B0F0BD34
:1016700004380008F8B515460E460746FFF7BEFFCA
:101680000E490024A8014518285D402100F0D4F837
:10169000641CE4B2102CF7D3761CF1B23846FFF785
:1016A000ADFF0024281920300078402100F0C4F854
:1016B000641CE4B2102CF5D3F8BD0000F43D000822
:1016C000F8B50F4604461E46154604210A20FFF7CA
:1016D0008BFF01462846FEF73FFD0A21FEF73CFD41
:1016E000002903D03031CAB2102306E0002E02D008
:1016F0001023202201E010232D2239462046FFF737
:1017000091FF03210A20FFF76FFF01462846FEF7ED
:1017100023FD0A21FEF720FD30312046CAB20830F1
:10172000C0B210233946FFF77DFF20461030C0B20B
:1017300010232E223946FFF775FF02210A20FFF7FA
:1017400053FF01462846FEF707FD0A21FEF704FD78
:1017500030312046CAB21830C0B210233946FFF7E4
:1017600061FF01210A20FFF73FFF01462846FEF7EF
:10177000F3FC0A21FEF7F0FC30312046CAB22030DB
:10178000C0B210233946FFF74DFF00210A20FFF7B2
:101790002BFF01462846FEF7DFFC0A21FEF7DCFCA2
:1017A0003031CAB22834E0B210233946FFF73AFF8D
:1017B000F8BDF8B51D4616460F4604460DE03278D2
:1017C00039462046069BFFF72DFF0834E4B2782CFB
:1017D00002D90024BF1CFFB2761C28466D1EEDB254
:1017E0000028ECD1F8BD00003EB50C46FEF7E9FD3F
:1017F00002460B460EA101A800F0F4FC10250623BA
:1018000001AA03212C200095FFF7D3FF2046FEF705
:10181000D8FD02460B4606A101A800F0E3FC062312
:1018200001AA19462C200095FFF7C3FF3EBD00001A
:1018300025322E346600000070B50D46044601F0D6
:10184000B1F9782001F07CF901F0E8F9284601F0BF
:1018500077F901F0E3F9204601F072F901F0DEF9C1
:1018600001F0BEF970BD0000F8B51D4801F0D0FBD5
:101870001B4C1D4F1B4E412067610006A663206173
:101880000020A06119481A4D20600420285EFEF750
:1018900059FD60630620285EFEF754FD2063204654
:1018A00001F085FB20463C3001F0B2FB3C3467611F
:1018B0001048A66320610020A0610C48206004202D
:1018C000285EFEF73FFD60630620285EFEF73AFDC6
:1018D0002063204601F06BFB00F0BEF8F8BD00006D
:1018E0000401002017B751380AD7233C0000A0405C
:1018F000F800002000006841F0B501218BB04804D9
:1019000000F0BCF8FF20813003900221684601748A
:1019100003214174002409258474ED0603A9284697
:10192000FFF748FC022207212846FFF77BFC022232
:1019300008212846FFF776FC0121C80200F0B6F81E
:1019400068460480FF254480E035019504811E4FE0
:1019500084726946384600F00BFC0021384600F0DE
:101960005BFB6021684681820126C68204210183D7
:1019700007940484082141848484C48405A93846DA
:1019800000F080FBEF2405A93846079400F0BEFB69
:101990000121384600F040FB0121384600F048FBA9
:1019A00000F028F80121384600F04CFB074F0848AA
:1019B0007D803C80FEF7D8FCF8800648FEF7D4FC1A
:1019C000B8803E720BB0F0BD002C0140F800002042
:1019D0006686E343AE47194110B50021034800F085
:1019E0008FFB03490020087210BD0000002C01404D
:1019F000F800002010B505490120087204480021B4
:101A00004163022100F07CFB10BD0000F8000020C3
:101A1000002C014010B50E4C0021227A002A01D082
:101A2000012010BDFF22D205D04202D2FEF79CFC5D
:101A300001B20620205E884200DA01460420205EC2
:101A4000884200DD014688B202494863002010BD8B
:101A5000F8000020002C014006480021017381603D
:101A6000C1734173817301744174034A06C081726A
:101A7000704700007C010020983A0000044A0029C9
:101A8000516901D0014300E081435161704700007A
:101A900000100240044A0029D16901D0014300E04E
:101AA0008143D1617047000000100240044A0029C0
:101AB000916901D0014300E08143916170470000CA
:101AC00000100240044A0029D16801D0014300E01F
:101AD0008143D16070470000001002401248016845
:101AE0000122114301604168104A114041600168C0
:101AF0000F4A114001600168012292049143016084
:101B000041683F22120491434160C16A09090901F9
:101B1000C162016B074A11400163416B49084900EA
:101B20004163002181607047001002400CB8FF083B
:101B3000FFFFF6FEACFEF0FF034600200A4A5909FB
:101B40000CD001290CD002290CD0516BDA06D20E30
:101B5000012393400B4200D0012070471168F5E744
:101B6000116AF3E7516AF1E700100240034A516835
:101B7000F023994301435160704700000010024078
:101B8000024900228A7088707047000000100240ED
:101B900005490028086802D00122104301E04008EE
:101BA000400008607047000000100240034A51687E
:101BB00007231B0299430143516070470010024004
:101BC0000122054912060028086801D0104300E0F0
:101BD00090430860704700000010024010B5054AAD
:101BE00053687B24E403A3435360536808430343CF
:101BF000536010BD00100240034A516889088900F3
:101C000001435160704700000010024070B50F485A
:101C10000068FEF7A2FB0E4D2946FEF749FB0D4C6E
:101C2000606020600948001D0068FEF796FB2946A9
:101C3000FEF73EFBA060054808300068FEF78DFB0C
:101C40002946FEF735FBE06070BD00000064000827
:101C50000050C3479001002070B50924E406208A93
:101C600000051AD5208AC00417D40C4E308AC0074C
:101C700013D10B4800F04CFF1025A561094800F076
:101C800047FFA561208A000507D5208AC00404D437
:101C9000308AC00701D1FFF71DF870BD000400486D
:101CA00040420F00A086010070470000F8B50024F4
:101CB000FFF730FA3420FFF7C9F92A48FFF7CCF9CB
:101CC00009261025F606042809D0274C0227B561FD
:101CD000A08A7840A082254800F01AFFF7E7244F39
:101CE00024497868FEF7A7FAFEF757FB01461D481E
:101CF000FFF7EAF9042800D101241E49B868FEF76D
:101D00009AFAFEF74AFB01461648001DFFF7DCF978
:101D1000042800D1641C1749F868FEF78CFAFEF716
:101D20003CFB01460F480830FFF7CEF9042800D1EC
:101D3000641CFFF7C1F9032C09D00B4C0227B561D5
:101D4000A08A7840A082094800F0E2FEF7E7B5617A
:101D5000094C204600F0DCFEB561204600F0D8FEBC
:101D6000F8BD0000006400080004004800350C00C5
:101D7000900100200050C347C0D401001CB50023CF
:101D8000224800930193016801221204114301606B
:101D900051000524240302680A400192009A521C53
:101DA0000092019A002A02D1009AA242F3D101685E
:101DB000890328D501210191154A1121116041683B
:101DC00041604168416041687F22D2039143416094
:101DD0004168112212041143416001680122120678
:101DE0001143016001688901FCD5416889088900B7
:101DF0004160416802221143416041680907890F2F
:101E00000229FAD11CBD01931CBD00000010024044
:101E10000020024070B5FFF761FE0120FFF7B8FE19
:101E20000120FFF789FE0028FAD00120FFF7A8FE65
:101E30001120FFF781FE0028FAD015491120086013
:101E40000020FFF793FE0020FFF7B0FE01210905F7
:101E50000811FFF7C3FE0120FFF7B2FE1920FFF7BC
:101E60006BFE0028FAD00220FFF7C6FE0A4C094894
:101E7000606103210D1F2846FFF7A4FA0020A0612E
:101E80000720206100212846FFF79CFA70BD000062
:101E9000002002407FBB000000E000E010B501F030
:101EA00077F810BD10B51448016801221143016094
:101EB0004168124A114041600168114A11400160B5
:101EC0000168012292049143016041683F2212049B
:101ED00091434160C16A09090901C162016BFF2296
:101EE000543291430163416B490849004163002129
:101EF0008160FFF743FF10BD001002400CB8FFF8EF
:101F0000FFFFF6FE1FB501210802FFF7C3FD6320A6
:101F100001902F206A461080002010810C4C5080C8
:101F20006946204600F024F913216A461173012105
:101F30005173917303A8FFF71DFA01221146204641
:101F400000F098F80121204600F072F81FBD000053
:101F50000020004010B5074C0121204600F07EF81B
:101F6000002805D00121204600F05FF800F08CFE2B
:101F700010BD0000002000401FB501210220FFF726
:101F800089FD132001900F486A46108000201081BF
:101F90000D4C50806946204600F0EAF810216A4650
:101FA0001173022151730121917303A8FFF7E2F924
:101FB00001221146204600F05DF80121204600F084
:101FC00037F81FBDBF1200000004004010B50F4CD1
:101FD0000121204600F042F8002816D001212046B9
:101FE00000F023F8FEF7C0FF0920C006808AC00673
:101FF0000BD507490878401CC0B208701E2804D9C8
:102000000020087003491020088110BD0004004022
:10201000140000202000004880220029018801D0FF
:10202000114300E0914301807047C943018270472A
:102030000029018802D00122114301E0490849002A
:102040000180704740300029818803D00122D203EB
:10205000114301E04904490C818070470246138A0C
:10206000002092890B400A40002B02D0002A00D0A9
:1020700001207047002A828901D00A4300E08A4388
:102080008281704770B5028C520852000284048C21
:102090008288038B7025AB439B080D889B001D43F2
:1020A00002239C438E894B882643104C3343A04225
:1020B00008D00F4CA04205D00E4CA04202D00E4CCE
:1020C000A0420DD10824A343CC891C4304239C4384
:1020D0008B882343094C22400C8A14434A8A2243AA
:1020E0008280058389684163038470BD002C0140B0
:1020F000004001400044014000480140FFFC000056
:10210000028C02239A430A430284704730B5028C42
:10211000124B1A400284058C8288838B104C23401A
:102120000C782406240C1C430E4B1D400B7B1B0714
:102130001B0C2B438D782D072D0C1D430A4B984209
:1021400005D10A4B13400A8A9205120C1A43828069
:10215000848389680164058430BD0000FFEF0000BE
:10216000FF8C0000FFDF0000002C0140FFBF0000DB
:1021700010B50288144B984206D00124A407A0424F
:1021800002D0124CA04203D17024A2434C882243B7
:102190000F4CA04203D00F4C22400C8922430280F6
:1021A0004A68C2620A880285984208D00A4A904268
:1021B00005D00A4A904202D0094A904201D1897A58
:1021C00001860121818210BD002C014000040040E5
:1021D00000100040FFFC00000040014000440140AE
:1021E000004801400FB410B504A9074B02AA039898
:1021F00000F0ECF8044602A9002000F083FC204621
:1022000010BC08BC04B01847052B00082021020CA4
:1022100001D010211046020A01D0104608390209E7
:1022200001D01046091F820801D01046891E4208BD
:1022300001D0881E7047081A704702E008C8121FB4
:1022400008C1002AFAD170477047002001E001C19F
:10225000121F002AFBD17047F0B51FB486B0099851
:10226000089A030D0021024314D05148514A18180E
:10227000504305141198012810981AD0281A401CB0
:1022800000264D4F4D49009601910490002812DA26
:10229000444211E01198012449A3012801D110986A
:1022A000C1430698119A84600360C26041600BB01C
:1022B000F0BD4042E4E70446210500203F4A001CEF
:1022C00051410391029012E0E00707D032463B46AD
:1022D00001990098FEF7C2F90191009032463B4601
:1022E00010461946FEF7BAF906460F466410002C50
:1022F000EAD10498039B0028029A0999089806DA03
:10230000FEF7ACF9019B009AFEF7A8F905E0FEF78D
:102310000DFA019B009AFEF709FA04460E460022C8
:10232000284BFEF79BFA03D80020C043014607E084
:102330000022254B20463146FEF7DEF8FEF76EFA06
:10234000102409E0002C0ADB0A220023FEF762F8C1
:10235000079B30321A55641E02460A43F2D11122FD
:10236000641C079B121B1C19119B012B03D001231A
:1023700008430ED10AE0084304D011201090002039
:10238000119077E71098151A6D1E0BE01098824295
:1023900002DD00236D1C03E0824201DA00236D1E82
:1023A000002BEED0069811998260C16030C07EE7A4
:1023B00001FCFFFF104D0000000014400000F03F42
:1023C000300000000000F0430000E03FFFB597B090
:1023D0000646002518E2252877D100242746FD4926
:1023E000049400E00443761C32780120203A9040A7
:1023F0000842F7D130782A280ED0022230780146E0
:102400003039092916D804990A235943303940181C
:102410001443761C0490F1E7189802C804911890B0
:10242000002904DA012040030443484204900220BA
:102430000443761C30782E2814D10420044370788D
:10244000761C2A2809D11898761C80C8189009E0B3
:102450000A214F43303FC719761C30780146303986
:102460000929F5D930786C2810D006DC4C281AD010
:1024700068280ED06A2817D104E0742813D07A286F
:1024800012D110E00120400504430CE001210905B0
:1024900001E0032109050C437178814203D1012039
:1024A00000052418761C761C3078119066280BD015
:1024B00013DC58287DD009DC00287BD04528F6D0D5
:1024C0004628F4D047281AD1A5E118E0632835D072
:1024D000642870D0652812D19DE170286CD008DC8A
:1024E0006728F1D069287BD06E280DD06F2806D1DF
:1024F000BAE073282ED0752871D0782859D01A9A4E
:10250000199990476D1C7EE16002400F022809D0A6
:1025100003280DD00428189801680DD00D60001D07
:10252000189070E11898EA1701680D604A60F6E7A4
:10253000189801680D80F2E70D70F0E718986A4668
:1025400001781172001D18900020507202A80090AE
:10255000012005E0189802C8189000200091C0439F
:1025600061070DD5002101E00199491C0191B94293
:1025700012DA8142F8DB009A515C0029F4D10BE0B9
:10258000002101E00199491C01918142FADB019A85
:102590000099895C0029F5D1019904981A9B471A82
:1025A00021463846199A00F097FA019940194518C2
:1025B0000BE04FE02CE113E04EE00098009900782A
:1025C000491C00911A9A199990470198401E019050
:1025D000401CF2D1214638461A9B199A10E137E087
:1025E0000A200021009001916002410F022907D0CA
:1025F000189A01CA1892C2179446032908D00AE013
:102600001898C01DC108C90005C91891944607E073
:1026100000B2C2179446042902D140B2C1178C46B9
:1026200000226146944506DA0A4600214042914163
:102630008C462D2102E0210504D52B216A46117319
:10264000012103E0E10701D02021F7E7029155E0E5
:102650000A200AE0102008E0102000900021042049
:1026600004430191082703E0082000210191009014
:102670006002410F022907D0189A01CA189200225D
:102680009446032908D008E01898C01DC108C90065
:1026900005C91891944603E080B2042900D1C0B264
:1026A00000210291210729D51199702906D0009A9D
:1026B0001021019B4A401A4305D00EE040216A4692
:1026C0001173012108E06146014306D030216A46BA
:1026D00011731199517302210291009A0821019BF3
:1026E0004A401A430AD16146014301D1610705D529
:1026F00030216A46117301217F1E029111995829D8
:1027000004D035A10E910DA90D910DE037A1F9E787
:102710006146019B009AFDF77DFE0E9B8C469B5CFB
:102720000D9A521E0D92137061460143F0D10D981F
:1027300005A9081A20300190600703D50120000484
:10274000844300E001270198874201DD381A00E048
:102750000020019900904118029809180498401A25
:102760000490E00306D421461A9B199A049800F0BD
:10277000B3F94519002706E003A81A9AC05D199914
:1027800090476D1C7F1C02988742F5DBE0030CD557
:1027900021461A9B199A049800F09EF9451904E005
:1027A0001A9A3020199990476D1C0099481E009084
:1027B0000029F5DC08E00D980D990078491C0D9171
:1027C0001A9A199990476D1C0199481E0190002989
:1027D000F1DC63E10928010030313233343536371A
:1027E000383961626364656600000000303132335D
:1027F00034353637383941424344454600000000FD
:1028000000F05AF94519761C3078002800D0E2E52E
:1028100028461BB0F0BD600700D406271898C01DDD
:10282000C108C90048680A680831C30FDB0718915E
:10283000190001D09CA108E0210501D59BA104E06D
:10284000E10701D09AA100E09AA1430011985B082A
:10285000109165280CD006DC452809D046281DD0EB
:10286000472841D141E0662818D067283CD13CE098
:102870000021112F01DB112000E0781C0191009054
:1028800008A911A8FFF7E8FC139905910021119AF6
:1028900015927F1C12980197009150E00120C0070B
:1028A00003900120019008A9009711A8FFF7D4FC1C
:1028B000139A149905920022119B00921298159375
:1028C000059A0192002901D0104602E0791C4018B7
:1028D0000190381A01D5019804E04042401E009052
:1028E000781C0190C01B029043E0012F00DA012701
:1028F0000021112F01DD112000E0384601910090E8
:1029000008A911A8FFF7A8FC13990591119A0021B5
:10291000129815920091019721070CD40599B9429C
:1029200001DB019900E00191012904DD159A491E9E
:10293000515C302906D0B84201DA011D05DA0121C7
:10294000029115E00199491EEDE7002805DC009988
:10295000411800910199091A03E0019A411C914222
:1029600000DD01910099401A401C02900120C0072F
:102970000390200706D402990198814202DB0020CF
:10298000C043029000206946C87707AF0121039831
:102990000337C907884224D0022011902B201290BF
:1029A000039800280CDA404203902D20129007E093
:1029B0000A210398FDF7D0FB30317F1E0390397058
:1029C0001199481E11900029F2DC03980028EFD1DC
:1029D000791E129808703078202108404530BF1EBB
:1029E000387006A8C01BC01D0390109800780028FE
:1029F00000D00120019941180298C01709180398C6
:102A000009180498401A401E0490E00306D4214699
:102A10001A9B199A049800F05FF8451910980078ED
:102A2000002803D01A9A199990476D1CE00324D509
:102A300021461A9B199A049800F04EF845191CE09B
:102A40000098002807DB00990598884203DD159857
:102A5000405C199901E0199930201A9A9047009822
:102A60006D1C401C00900298401E0290002804D16A
:102A70001A9A2E20199990476D1C0199481E0190B1
:102A80000029DDDC05E038781A9A7F1C19999047F7
:102A90006D1C0399481E03900029F4DC21461A9B03
:102AA000199A0498ACE600002D0000002B000000ED
:102AB0002000000000000000F8B5044600251E4676
:102AC0001746880404D405E039462020B0476D1C21
:102AD000641EF9D52846F8BDFFB50446002581B02F
:102AE0001E46C80301D5302700E02027880404D5FE
:102AF00005E038460399B0476D1C641EF9D5284699
:102B000005B0F0BD0A68531C0B60107070470000E0
:102B100070B50A4D00236C693021AA694843A96940
:102B20009142FCD0914201D2521A01E0661AB218C9
:102B3000D3180A468342F2D370BD000000E000E0E3
:102B4000F8B5174E05463068032109038843306005
:102B50003068012109030843306011488027203084
:102B600007810024280602D54020B06103E00C490B
:102B70004020203108816806050E0120FFF7C8FFBC
:102B8000B7610120FFF7C4FF05482030078101200D
:102B9000FFF7BEFF641CE4B2082CE3D3F8BD0000CD
:102BA0000004004870B50D480168032212039143E8
:102BB0000160016801221203114301604026866111
:102BC000802585610120FFF7A3FF044C2034268176
:102BD0000120FFF79DFF258170BD00000004004823
:102BE00070B50D4C206803210903884320602068DC
:102BF0000121090308432060074880252030058112
:102C0000402606810120FFF783FFA561A661012010
:102C1000FFF77EFF70BD00000004004870B50C4C4B
:102C20002068032109038843206020682060402039
:102C3000A0610120FFF76CFF8025A5610120FFF74F
:102C400067FF208A024820300581002070BD000007
:102C500000040048FFF7DEF8FEF74EFEFEF704FE24
:102C6000FDF7C6FEFEF768FBFEF7ECFBFEF7F0FA99
:102C7000FFF782F9FEF7F0FFFEF7C8FFFFF742F912
:102C8000FEF76AFAFEE70000F8B55C4CA07C00286D
:102C900077D05B4E5B49B06E884201DD012100E0D8
:102CA0000021594A6173904201DA012200E00022BA
:102CB000A273564B306F984201DD012300E00023E0
:102CC0002374534DF06EA84201DD012000E0002086
:102CD000504D6074002905D1002A03D1002B01D189
:102CE00000280AD0FEF786FE002020600220A8619E
:102CF0001020A8612020A86105E003CC083C884290
:102D000000D8401C2060B088FDF727FB424F79684F
:102D1000FDF791FA00907088FDF71FFBB968FDF789
:102D200082FAF968FDF787FAFF21C9050646C8420D
:102D300000D3002603CC083C884210D1374800F06D
:102D40002FF9374800F02CF90020A060FEF744FE70
:102D5000A068FEF75FFE2F4902202031088103CCD6
:102D6000304F083C884209D3207B00280AD0012834
:102D700025D000202073A068FEF74CFE7888401C08
:102D80007880F8BD2548009A016800F052F924497E
:102D9000A060C86209683046FDF728FB01D3012016
:102DA00000E00020207332217888FDF7D5F9002952
:102DB000E1D1184910202031088120201BE018485B
:102DC0003246016800F035F91449A060C86209680C
:102DD0000098FDF715FB01D3012000E000202073CF
:102DE00032217888FDF7B8F90029C4D1094920209B
:102DF000203108811020A861BDE700007C0100207F
:102E000084000020000062420000304100000841C0
:102E100000004C4200040048900100200401002002
:102E20004001002018000020204F00242048C66EDA
:102E3000056F387800281BD000203870B87800283B
:102E400009D01C481023027803216C20FEF7EAFB0E
:102E50001023202208E01023202203216C20FEF7FB
:102E6000E1FB14481023027806216C20FEF7DAFB00
:102E7000787800280BD0B878002801D0BE6800E030
:102E8000FD68641CE4B2052C01D900247C700A485A
:102E9000807C002801D1BE68FD6830462946FEF7D7
:102EA000A3FC322000F026FBC0E7000074000020E5
:102EB00084000020180000207C0100201CB50121A6
:102EC0008804FEF7DBFD0C4C40212046FEF7BCF9E0
:102ED00080212046FEF7B8F9C021009101216A4601
:102EE00011719171032050710020D0716946204604
:102EF000FEF760F91CBD0000000400481024022702
:102F000001251E4EFDF742FEFEF7F0F9002830D0F5
:102F10000921C9068C61022804D0012817D0032892
:102F200019D026E01649887C281A0006000E8874FD
:102F300004D014480781002008601AE0FEF75AFD0B
:102F400010482038876184612021816111E0B078C8
:102F5000281AB0700CE00C487168814204D17F20BF
:102F6000C0053C21706001E03E217060074801709F
:102F70003570052000F0BEFAC4E7000074000020A0
:102F80007C01002020040048CDCCCC3D180000205E
:102F900010B500F073FB012801D000F035FB10BD27
:102FA000002141608160C160C16281627047F8B5F3
:102FB000876B8669044639463046FDF779F9054640
:102FC00038466169FDF774F97F21C905FDF7DAF824
:102FD0002946FDF7D7F825692946FDF72CF9E06168
:102FE00001213046FDF7A2F93946FDF761F97F214D
:102FF000C905FDF7C7F82946FDF71DF920623146DE
:103000002846FDF718F93946FDF752F96062F8BD18
:10301000002141608160C160C16281620160016321
:103020004163816301614161816141620162C1610A
:103030007047F8B50B46044600263546114618463B
:10304000FDF7F1F860600746E168606AFDF7F3F8A4
:1030500000902946206AFDF795F8A168FDF7EBF886
:1030600005463146E069FDF78DF83946FDF7E3F88E
:103070002946FDF7D8F80099FDF784F8A062E16AC7
:10308000FDF780F80546216BFDF7BAF900D2256BF4
:10309000616B2846FDF7AAF900D2656BA068E06075
:1030A0006068E562A0602846F8BD0000F8B5134EE0
:1030B0000F46F56804463068001D00F083F9601C77
:1030C00007D1002F05D031680D48091D00F0B2F975
:1030D000F8BD30682C1944603168AC4204D2B06B42
:1030E000091D00F08FF9F8BD706B091D00F08AF919
:1030F000B06A8442F7D2B462F8BD00003400002008
:10310000A80B0020F8B5054600F0A0F9294EB068DC
:10311000401CB0603068284F002803D07069002838
:1031200027D02CE03560B068012828D10024142075
:103130006043C01900F058F9641C072CF7D31E48EF
:103140008C3000F051F91C48A03000F04DF91A48BD
:10315000B43000F049F91848C83000F045F9164875
:10316000DC3000F041F914488C3070631430B063E7
:1031700005E03068E96AC06A884200D83560706A44
:10318000401C7062E86A3169884200D930611421BC
:103190004843C019291D00F04DF900F063F970692A
:1031A000002806D03068E96AC06A884201D200F07F
:1031B00095F9F8BD34000020CC0A002070B5134EFC
:1031C000134D1EE000F0D4F93068002805D000242B
:1031D00000F0C2FA002C14D101E00124F8E700F05D
:1031E00035F9F068C468201D00F0ECF8A868401EAE
:1031F000A8606868401E686000F034F9204600F05E
:1032000009F868680028DDD170BD0000940B00202B
:103210003400002010B50446006B00F031F9204660
:1032200000F02EF910BD0000044CFFF7C7FF206826
:103230000128FAD900F052F9F7E70000CC0A002083
:10324000FFB581B00C9C9000236B001F1818C608B6
:103250000A9DF600700701D072B6FEE723180A5CDB
:1032600020331A750A5C002A02D0401C1028F5D3BE
:103270002046403000270090C770072D00D3062558
:10328000E562A764201D656400F0B9F82046183097
:1032900000F0B5F824610720401B6462A061E76478
:1032A000009807743046049A019900F07BF820607A
:1032B0000B98002800D0046005B0F0BD0648416BB3
:1032C0000968002905D0416BC968C96849688162ED
:1032D00070470021C943FAE7340000200348006822
:1032E000401C72B600D0FEE7FEE700007000002030
:1032F000F8B50446002500F03BF927490E460A467A
:1033000048680836103200280BD124480027C0082E
:10331000C00081C6224B176053600CC00120083EDC
:103320004860002C07D00834600704D06007400FC5
:103330000823181A04191A4B601E5B1E984227D2E4
:10334000154F3068083701E0074618464368A34226
:1033500002D20368002BF7D1904219D03D68026871
:103360003A6042680835121B102A0DD9061972609E
:10337000094A44600832746800E01A4613685F68BE
:10338000A742FAD33360166040680A68101A0860D2
:1033900000F0E2F92846F8BD1C000020A80100203A
:1033A0002409000010B50124031F24061C601B1F04
:1033B0001960191F024B0B60143940380A6010BDA8
:1033C000DD3200084368826801699A608368426858
:1033D0005A604A68824201D182684A6000220261D2
:1033E0000868401E086070470146083100224160AD
:1033F000D243C160826001610021016070470021F9
:103400000161704730B50C68621C02D00246083278
:1034100002E0026904E01A4653681D68A542FAD921
:1034200053684B6099608A60516008610168491C6B
:10343000016030BD42684A6093688B609368596050
:10344000916008610168491C0160704772B60448C8
:103450000168491C0160BFF34F8FBFF36F8F704746
:103460007000002005490868002804D0401E08604C
:1034700000D162B6704772B6FEE70000700000200F
:1034800010B5002815D00446083C00F071F8094931
:10349000606800E011460A6853688342FAD32260EC
:1034A00004480C600838616802688918016000F0FF
:1034B00053F910BD2400002010B506487D21C90035
:1034C0000068FCF749FE0449401E48610720086176
:1034D00010BD00000000002000E000E001200449D1
:1034E00000074860BFF34F8FBFF36F8F7047000036
:1034F00000ED00E010B502000FD00948006B002875
:1035000001D072B6FEE700F033F800211046FFF755
:10351000CDFD00F021F9002801D1FFF7DFFF10BD3C
:10352000340000201CB50E48002401902346802260
:103530000CA100940D4800F079F8012803D0401C3C
:103540000CD172B6FEE772B600210548C9432C388B
:10355000816201214161C46000F03EF81CBD0000A1
:103560006000002049444C4500000000293200085A
:103570000248016B491C01637047000034000020C1
:1035800010B5134B186B002802D00120D86110BD74
:103590000020D86118690F4902E0002815D0401EAC
:1035A000142242438A58002AF7D014224243511869
:1035B0004A680C46526808344A60A24201D15268F7
:1035C0004A60D1681960186110BD72B6FEE700004C
:1035D00034000020CC0A002010B50948016AFF22FF
:1035E000120411430162016A120211430162FFF7E2
:1035F00063FF044900200860FCF764FD002010BD53
:1036000000ED00E07000002010B5FCF76FFD0446EF
:1036100000F044F8002803D0012003490007486067
:103620002046FCF767FD10BD00ED00E0FFB585B05A
:10363000164690000F9FFFF75BFE05001AD054203E
:10364000FFF756FE040012D0256300210E98039167
:103650000197009002943246089B06990598FFF75F
:10366000EFFD2046FFF74EFD012009B0F0BD2846D2
:10367000FFF706FF0020C043F7E700000648416956
:10368000002904D0006B002803D0002070470120DF
:10369000704702207047000034000020F8B52C4F1E
:1036A0000026386B002808D0B869401CB861F8695A
:1036B000002800D001263046F8BDFD686D1CFD6075
:1036C0000ED1786B0068002801D072B6FEE7786BE7
:1036D000B96B7963B863386A401C3862FFF7EEFD56
:1036E000B86A85420AD3786B0068002810D0786BDE
:1036F000C068C468606885420DD2B8623868142119
:10370000C06A4843134908580128D0D90126CEE79A
:103710000020C043F1E7201DFFF754FEA06A0028F7
:1037200003D020461830FFF74DFEE06A3969884221
:1037300000D938611421484306494018211DFFF77C
:1037400079FEE06A3968C96A8842CCD30126CAE7A3
:1037500034000020CC0A0020F8B5284D0024286B46
:103760002746002808D0FFF771FE286B401E28630B
:10377000286B002802D03CE072B6FEE7A86801265C
:1037800000281BD135E0C068C46820461830FFF718
:1037900019FE201DFFF716FEE06A2969884200D94C
:1037A00028611421484316494018211DFFF742FEA5
:1037B000E06A2968C96A884200D3EE611048B430D3
:1037C00001680029DFD1002C01D0FFF777FDAC693B
:1037D000002C08D0FFF762FF002800D0EE61641EC5
:1037E000F8D10020A861E869002802D00127FFF77E
:1037F00075FEFFF737FE3846F8BD000034000020A4
:10380000CC0A0020000000000000000000000000C2
:1038100000000000000000F800000000000000337D
:103820003000000000100C06100C06000000000024
:103830000000000040C07840C0784000043F04040D
:103840003F040400007088FC08300000001820FFCE
:10385000211E0000F008F000E018000000211C0309
:103860001E211E0000F00888700000001E21232485
:103870001927211010160E000000000000000000A3
:1038800000000000000000E0180402000000000733
:103890001820400000020418E0000000004020183A
:1038A00007000000404080F0804040000202010F0D
:1038B00001020200000000F0000000000101011FF1
:1038C00001010100000000000000000080B0700055
:1038D00000000000000000000000000000010101E5
:1038E0000101010100000000000000000030300074
:1038F000000000000000000080601804006018064E
:103900000100000000E010080810E000000F102087
:1039100020100F00001010F8000000000020203FD1
:10392000202000000070080808887000003028245B
:1039300022213000003008888848300000182020FC
:1039400020110E000000C02010F800000007042421
:10395000243F240000F80888880808000019212066
:1039600020110E0000E0108888180000000F1120C0
:1039700020110E0000380808C83808000000003F79
:10398000000000000070880808887000001C2221D8
:1039900021221C0000E010080810E0000000312285
:1039A00022110F00000000C0C00000000000003025
:1039B0003000000000000080000000000000806077
:1039C00000000000000080402010080000010204F8
:1039D00008102000404040404040400004040404DF
:1039E000040404000008102040800000002010089B
:1039F00004020100007048080808F00000000030D0
:103A000036010000C030C828E810E000071827245D
:103A100023140B000000C038E0000000203C23020B
:103A20000227382008F8888888700000203F20206E
:103A300020110E00C03008080808380007182020A0
:103A40002010080008F808080810E000203F202097
:103A500020100F0008F88888E8081000203F202078
:103A60002320180008F88888E8081000203F20006C
:103A700003000000C03008080838000007182020A4
:103A8000221E020008F808000008F808203F210163
:103A900001213F20000808F8080800000020203F0E
:103AA0002020000000000808F8080800C08080807E
:103AB0007F00000008F888C028180800203F200177
:103AC0002638200008F8080000000000203F2020D1
:103AD0002020300008F8F800F8F80800203F003FE8
:103AE000003F200008F830C00008F808203F200000
:103AF00007183F00E01008080810E0000F10202011
:103B000020100F0008F808080808F000203F2101E5
:103B100001010000E01008080810E0000F1824243C
:103B200038504F0008F8888888887000203F2000AF
:103B3000030C302000708808080838000038202165
:103B400021221C00180808F8080818000000203F6F
:103B50002000000008F808000008F808001F2020D6
:103B600020201F000878880000C8380800000738A7
:103B70000E010000F80800F80008F800033C0700F8
:103B8000073C0300081868808068180820302C0360
:103B9000032C30200838C800C83808000000203F37
:103BA0002000000010080808C83808002038262126
:103BB00020201800000000FE020202000000007F2A
:103BC00040404000000C30C0000000000000000138
:103BD0000638C00000020202FE0000000040404023
:103BE0007F00000000000402020204000000000048
:103BF00000000000000000000000000080808080C5
:103C000080808080000202040000000000000000AC
:103C10000000000000008080808000000019242245
:103C200022223F2008F8008080000000003F112081
:103C300020110E000000008080800000000E112086
:103C400020201100000000808088F800000E112064
:103C500020103F200000808080800000001F222272
:103C600022221300008080F0888888180020203FDE
:103C7000202000000000808080808000006B9494F1
:103C80009493600008F8008080800000203F2100AD
:103C900000203F2000809898000000000020203F76
:103CA00020200000000000809898000000C0808064
:103CB000807F000008F8000080808000203F240200
:103CC0002D302000000808F8000000000020203FF0
:103CD000202000008080808080808000203F2000A5
:103CE0003F20003F8080008080800000203F210036
:103CF00000203F200000808080800000001F2020E6
:103D000020201F00808000808000000080FFA12014
:103D100020110E000000008080808000000E112025
:103D200020A0FF80808080008080800020203F21B4
:103D30002000010000008080808080000033242467
:103D400024241900008080E0808000000000001F13
:103D5000202000008080000000808000001F2020C4
:103D600020103F20808080000080808000010E3085
:103D70000806010080800080008080800F300C03E6
:103D80000C300F0000808000808080000020312EE9
:103D90000E312000808080000080808080818E70C5
:103DA0001806010000808080808080000021302C77
:103DB0002221300000000000807C02020000000090
:103DC000003F404000000000FF0000000000000035
:103DD000FF0000000002027C800000000040403F25
:103DE00000000000000601010202040400000000BF
:103DF000000000000000F010101010FF1010101054
:103E0000F0000000000000000000000000000000C2
:103E10000000000000000F04040404FF0404040474
:103E20000F00000000000000000000000000000083
:103E3000000000000000F888888888FF888888884B
:103E4000F80000000000000000000000000000007A
:103E50000000000000001F080808087F8888888884
:103E60009F80F00000000000000000000000000043
:103E7000000000000000FE0282828282FA828282BA
:103E8000828202000000000000000000000000002C
:103E90000000000080601F40404040407F404044A0
:103EA000584040000000000000000000000000003A
:103EB000000000001060028C004464544D464454DD
:103EC00064C40400000000000000000000000000C6
:103ED0000000000004047E0180403E0000FE00005F
:103EE0007E80E000000000000000000000000000F4
:103EF00000000000143F00080000002074000000D3
:103F00003A220008883F0008740000204C0D000091
:103F10004A220008006CDC020000000000000000E3
:103F20000102030406070809000000003E0000002B
:103F30002409000000000000000000000000000054
:103F40000000000000000000000000000000000071
:103F50000000000000000000000000000000000061
:103F60000000000000000000000000000000000051
:103F70000000000000000000000000000000000041
:083F800000000000AAAAAAAA91
:04000005080000B13E
:00000001FF
